:020000040800F2
:1000000080090020D9430008C90F0008CD0F00085F
:10001000D10F0008D50F0008D90F0008000000001C
:10002000000000000000000000000000DD0F0008DC
:10003000E10F000800000000E50F0008950E000821
:10004000F3430008F3430008F3430008F3430008B8
:10005000F3430008F3430008F3430008F3430008A8
:10006000F34300083D0F0008610F0008810F0008EE
:10007000F3430008210F0008F3430008F34300088E
:10008000F3430008F343000800000000B50E000829
:10009000F3430008F3430008F3430008F343000868
:1000A000F3430008F3430008F3430008F343000858
:1000B000F343000800000000F343000800000000C4
:1000C000F343000800000000F3430008F343000876
:1000D000F3430008F3430008F34300080000000066
:1000E0000000000000000000F3430008F343000894
:1000F000F3430008F3430008F3430008F343000808
:10010000F34300080000000000000000F343000873
:1001100000000000000000000000000000000000DF
:1001200000000000000000000000000000000000CF
:1001300000000000000000000000000000000000BF
:1001400000000000000000000000000000000000AF
:100150000000000000000000F3430008F343000823
:10016000F3430008F343000800F002F800F03FF802
:100170000AA090E8000C82448344AAF10107DA4502
:1001800001D100F034F8AFF2090EBAE80F0013F015
:10019000010F18BFFB1A43F001031847644B00001E
:1001A000844B0000103A24BF78C878C1FAD85207AF
:1001B00024BF30C830C144BF04680C6070470000E1
:1001C0000023002400250026103A28BF78C1FBD860
:1001D000520728BF30C148BF0B607047642904F044
:1001E000F581002070471FB51FBD10B510BD04F08C
:1001F0003EFB1146FFF7F7FF00F008F804F05CFB48
:1002000003B4FFF7F2FF03BC04F064FB04F062F9EF
:1002100040F20000C2F20000006848F21F51C5F22F
:10022000EB11A0FB01014FF0FF3000EB511100205A
:10023000B0EB116F0DD14EF21002CEF20002516000
:100240004EF62351CEF20001F0230B709060072090
:10025000106000F04DFA002842D041F20044C4F68C
:10026000000400F041FA00F05FFA00F08BFA20463B
:100270000221012202F054FA4FF090404FF4006145
:10028000012202F04DFA00F039FD00F0C1FC00F04F
:1002900007FC02F06FF900F097FD40F29005082688
:1002A000C2F200050A202E7077B200F07FFE002F08
:1002B000A6F10106F6DC002028702046022100226B
:1002C00002F02EFA40F22814C2F200042068013035
:1002D0002060052000F06AFE02F04CF9F6E700BF4E
:1002E000FEE7000090FBF1F202FB1100084490FBD6
:1002F000F1F202FB110000B2704700BF401A4AF64B
:10030000AB2100B2C2F6AA2180FB012303EBD3721A
:1003100002EB4202A0EB4200063080FB011202EB2E
:10032000D27101EB4101A0EB410044F67E41C0F6E1
:10033000000131F91000704780B5DDF808C0A1F167
:10034000010EBEF1050F08D8DFE80EF0030D101402
:100350001B220021116018601DE000201060186051
:10036000CCF8000080BD414211600CE041421160B8
:10037000002102E00021116041421960CCF8000028
:1003800080BD1060404218600020CCF8000080BDA5
:100390000021106019604042CCF8000080BD00BF11
:1003A00040F28901C2F20001087070474FF618410F
:1003B000CFF6FF7110F57A7FC8BF014640F28A0080
:1003C000C2F20000B1F57A7FA8BF4FF47A710180C4
:1003D000704700BF2DE9F04381B040F20810C2F22F
:1003E0000000B0F90010B1F57A7F14DA40F2820211
:1003F00040F20C03C2F20002C2F200035288B3F9C9
:10040000007001310180B81800EBD07040081880EE
:1004100001B0BDE8F08340F204000021C2F2000008
:10042000C4F21021016040F2920240F29000C2F248
:100430000002C2F200001188007801311180A8B1D9
:1004400041F2597289B2CDF2B712A1FB022340F2F8
:100450009102C2F2000212781F0B0132B7FBF2F7D1
:100460007A43C2EB1332002A00F08E8000224FF054
:1004700090404FF4006102F053F940F2980040F6CA
:100480003D21C2F20000C3F6D761016040F289004D
:10049000C2F20000007842F6004940F2F306C4F2CE
:1004A0000109C2F2000670B140F22F10C2F2000042
:1004B0000078012807D0484602F082FF3078B0FA71
:1004C00080F0420903E0484602F080FF012240F23A
:1004D0000045C4F6000505F58050022102F020F920
:1004E00028464FF4807102F023F940F2F104C2F281
:1004F000000420704FF090404FF4805102F018F942
:1005000040F2F207C2F2000738702846082102F0D4
:100510000FF921783A78307001EB800040F2F00159
:1005200000EB4200C2F20001087044F6AC4140F218
:10053000EC02C0B2C0F60001C2F2000240F28A032F
:10054000095C1068C2F2000340F20A18B3F90030E7
:10055000C2F20008A0EB203088F80010184440F2E6
:100560008C0301391060020BC2F2000305291A80C6
:100570001BD840F30F30DFE801F0031C20222529AF
:1005800007464042002624E0B1FBF0F202FB1010C7
:1005900000287FF472AF40F29400C2F200000178AC
:1005A000B1FA81F14A09027061E7002600270020B4
:1005B0000FE04642074600200BE0464208E0474273
:1005C000002606E047420646002002E0064640427A
:1005D00000274FF6A535CFF6FF752946A842C8BFBC
:1005E000014640F25B4401F26542A04248464FF0AA
:1005F0000201C8BF4FF40C6203F048F82846AF422E
:10060000C8BF384600F2654248460121A742C8BF2C
:100610004FF40C6203F03AF8AE42C8BF354605F21B
:10062000654248460021A642C8BF4FF40C6203F061
:100630002DF840F20014C2F20004267898F8005019
:100640004AF6AB21701BC2F6AA2180FB012303EB03
:10065000D37202EB4202A0EB4200063080FB011293
:1006600002EBD27202EB420240F2FC01A0EB42002C
:1006700044F67E4240F22417C2F20001C0F60002A6
:10068000C2F200070B6832F9102038689A1A430941
:100690007C2B0A609CBF013038603868012E16D070
:1006A000012D14D104F002FA01464FF6EC10C4F209
:1006B000F84004F01DF940F20C11022E08BF80F042
:1006C0000040C2F2000108600020386008E0B0F588
:1006D0007A6F05D340F20C10C2F2000000210160D5
:1006E000257001B0BDE8F0834FF4407002F074B89B
:1006F00080B540F61D1002F073FA002818BF02F012
:100700007DFA40F6FF70022101F05EFF012809D159
:1007100040F6FF7001F03EFF012803D101F032FFE7
:10072000012080BD002080BDB0B54FF4E16002F033
:1007300023F942F20004C4F20004204602F07CFCDB
:1007400040F23415C2F2000500204FF4001148F6C3
:10075000A042C5E9001028732046AA6002F052FDAD
:100760002046294602F0D2FC13200021002202F08C
:100770003DF82046012102F0AFFD2046BDE8B04023
:1007800002F02EBDB0B540F2115002F0F5F840F283
:10079000125002F0F1F840F2135002F0EDF840F27E
:1007A000165002F0E9F840F20044C4F6000404F5E3
:1007B0008055284601210022022301F05FFF2846D0
:1007C00000210122022301F083FF204601210022A3
:1007D0004FF4004301F052FF2046002101224FF464
:1007E000004301F075FF2046012100224FF4004331
:1007F00001F044FF2046002101224FF4004301F0A4
:1008000067FF2046012100224FF4004301F036FF2C
:100810002046002101224FF4004301F059FF2046F9
:10082000012100224FF4004301F028FF204600215F
:1008300001224FF4004301F04BFF2046012100222A
:100840004FF4004301F01AFF2046002101224FF42B
:10085000004301F03DFF284601210022022301F060
:100860000DFF284600210122022301F031FF20461E
:10087000002100224FF4807301F000FF4FF0904000
:10088000002100224FF4805301F0F8FE20460021A1
:100890000022082301F0F2FE4FF0904002210122D5
:1008A000042301F0EBFE4FF09040022101224FF4AF
:1008B000004301F0E3FE4FF09040002103220423A7
:1008C00001F006FF4FF09040002103224FF4004357
:1008D00001F0FEFE4FF090400121042201F03CFFA8
:1008E0004FF0904001214FF4004201F035FF4FF0EE
:1008F000904003210022402301F0C0FE2046032146
:100900000022012301F0BAFE2046022100224FF40A
:10091000004301F0B3FE204602214FF4004201F0F3
:100920001BFF4FF09040022101224FF4807301F031
:10093000A5FE4FF09040022101224FF4007301F018
:100940009DFE4FF09040022101224FF4806301F0A0
:1009500095FE4FF0904002210122802301F08EFE8F
:10096000204602210122012301F088FE20460221B7
:100970000122022301F082FE4FF09040002100226C
:100980004FF4807301F0A4FE4FF09040002100224C
:100990004FF4007301F09CFE4FF0904000210022C4
:1009A0004FF4806301F094FE4FF09040002100224C
:1009B000802301F08DFE204600210022012301F05A
:1009C00087FE204600210022022301F081FE4FF025
:1009D000904002214FF4807201F0BEFE4FF0904033
:1009E00002214FF4007201F0B7FE4FF09040022157
:1009F0004FF4806201F0B0FE4FF09040022180225F
:100A000001F0AAFE20460221012201F0A5FE2046A7
:100A10000221022201F0A0FE4FF0904001210022AD
:100A20004FF4006301F02AFE4FF0904000210122B4
:100A30004FF4006301F04CFE2046022101224023C6
:100A400001F01CFE204602210122802301F016FE47
:100A5000204600210322402301F03AFE20460021D7
:100A60000322802301F034FE20460021402201F0C1
:100A700073FE20460021802201F06EFE4FF0904070
:100A8000012100224FF4006301F0F8FD4FF0904087
:100A9000002103224FF40063BDE8B04001F018BE0E
:100AA00070B540F20B6001F067FF42F60044C4F2FB
:100AB0000104204602F0C0FA40F26C15C2F20005B3
:100AC00000264FF4001040F6CA01C5E90006204692
:100AD000A9602E7302F096FB2046294602F016FB11
:100AE00020460221002202F0F5FD204601210022CD
:100AF00002F0F0FD20460021002202F0EBFD20462E
:100B00000221002202F0C8FD20460121002202F04D
:100B1000C3FD20460021002202F0BEFD2046022136
:100B2000702202F095FD20460121702202F090FD16
:100B300020460021702202F08BFD20460221002277
:100B400002F0A4FD20460121002202F09FFD204674
:100B50000021002202F09AFD40F25C15C2F200056D
:100B60004FF40020C5F806004FF00070C5F80A00E9
:100B7000204602212A4602F057FC204601212A463F
:100B800002F052FC204600212A4602F04DFC40F2C1
:100B90004411C2F200014FF400603C22C1E900069A
:100BA00001F108004FF480434CC020464E6102F032
:100BB000E9FB204602F01AFB20460221012202F046
:100BC00011FE20460121012202F00CFE20460021E8
:100BD000012202F007FE20460221042202F028FE34
:100BE00020460121042202F023FE20460021042297
:100BF00002F01EFE0D200021002201F0F7FD20462C
:100C0000012102F069FB2046BDE8704002F0E8BA1D
:100C1000F0B581B040F2096001F0AEFE4FF4A06083
:100C200001F0AAFE032001F04BFF09200121002260
:100C30000127002501F0DAFD002001F0EDFA40F275
:100C4000A001C2F2000140F28200C2F2000001F1F4
:100C50000C0C4FF4806242F24C448CE825004FF4B7
:100C600040500223C4F20104086200204FF4807651
:100C700081E8D000C1E9065301F0F2FA002001F04A
:100C80002DFB002001F04EFB0020022101F03CFC76
:100C90000020022101F07AFB002001F04FFB01202F
:100CA000022101F0BBF800201121022201F0E0F83E
:100CB00001200221022201F0DBF8002001F0A0F85F
:100CC0000120012101F078F901204FF4602101F0A9
:100CD00097F901F023F801F035F801F085FA00F0FA
:100CE000D3FF00F0E9FF00F0FBFF4FF4807001211B
:100CF00001B0BDE8F04001F051B800BFB0B540F21E
:100D0000117001F039FE4FF4A06001F035FE44F29D
:100D10000044C4F2000420464FF4E13103F058F8D7
:100D200020460021002503F081F82046002103F031
:100D300089F82046002103F091F82046002103F0B5
:100D400015F92046082103F0A1F82046042103F0FC
:100D5000A5F8204603F08EF80B200221002201F0B6
:100D600045FD042001F058FA40F2C40140F27D1024
:100D7000C2F20001C2F200000122C1E902204FF4D8
:100D8000405004F1240308620420C1E90035C1E9A0
:100D90000455C1E9065201F063FA042001F09EFAFD
:100DA000042001F0BFFA2046402103F08BFA042012
:100DB000022101F0A9FB0420012101F0E7FA04203F
:100DC000BDE8B04001F0BABAB0B540F20E6001F033
:100DD000D3FD4FF4A06001F0CFFD43F60004C4F250
:100DE000010420464FF4964102F0F2FF2046002114
:100DF000002503F01BF82046002103F023F82046CD
:100E0000002103F02BF82046002103F0AFF8204624
:100E1000082103F03BF82046042103F03FF8204668
:100E200003F028F80A200221002201F0DFFC022052
:100E300001F0F2F940F2C40140F27E10C2F200016A
:100E4000C2F200000122C1E902204FF4405004F137
:100E5000240308620220C1E90035C1E90455C1E953
:100E6000065201F0FDF9022001F038FA022001F0EB
:100E700059FA2046402103F025FA0220022101F010
:100E800043FB0220012101F081FA0220BDE8B040BD
:100E900001F054BA40F20410C2F2000001680131BE
:100EA0000160704740F23010C2F200000021016082
:100EB000704700BF10B540F23010C2F20000016868
:100EC000B1F5FA6F0BD940F22F14C2F2000420786A
:100ED00010B90020FFF76AFA0120207007E040F205
:100EE0002F12C2F20002002301311370016040F2A0
:100EF000F400C2F200000168B1F5FA6F03D30020DC
:100F000000F09EFE01E00131016000F0BDFB42F205
:100F10000000C4F200000121BDE8104002F0F2B967
:100F200080B5012001F082F842F60040C4F20100D1
:100F30000121BDE8804002F0E5B900BF80B5FFF7B0
:100F400049FA00F053FB0020022101F099FA002831
:100F500008BF80BD00200221BDE8804001F0CABA70
:100F600080B50220022101F08BFA002808BF80BD65
:100F700000F070F802200221BDE8804001F0BABA0A
:100F800080B50420022101F07BFA002808BF80BD53
:100F900000F014FA04200221BDE8804001F0AABA52
:100FA00040F20410C2F2000000687047002808BF39
:100FB000704740F20411C2F200010A6800BF0B68DA
:100FC0009B1A8342FAD37047704700BFFEE700BF09
:100FD000FEE700BFFEE700BFFEE700BF704700BFAF
:100FE000704700BF70470000F0B581B092B1144661
:100FF0000D460646002700BFE95D304602F056FF69
:10100000304640F2067103F09BF90028F8D0013712
:10101000A742F1D101B0F0BDB0B50022012917DB24
:1010200041F2210E03788C46013982EA032208231B
:1010300014B25500002CA3F1010348BF8EEA42050B
:101040001A062A46F4D1BCF1020F00F10100E9DAD8
:1010500090B2B0BD40F27E10C2F20000007840F2C3
:1010600012112F28C2F2000107D140F21F12C2F262
:1010700000020023137001220A700A78012A18BFA7
:10108000704740F21F1CC2F2000C9CF8003040F286
:101090001412C2F20002D054581CC2B20B2A8CF8AF
:1010A000000009D340F214100022C2F200008CF8B4
:1010B00000200A7000F002B8704700BFB0B586B0DB
:1010C00001782F2940F01881817A0A2940F0148193
:1010D00041788378C27801EB8101312A03EB410129
:1010E00016D0302A40F00881C8B210380E28A1F17D
:1010F000100500F28E80DFE800F0088E919699A628
:10110000A9ACB3B6B9BCBFC2C50000F03BF9BBE0A7
:10111000047A437904EB840E40F2712490F804C001
:101120008579C279407A63434FF02D4404EB035331
:101130004FF07A746C434FF4C80500EB234004F180
:1011400089446A4300EB4E00A2F1965200EB244022
:1011500000EB2242C9B2A2F50470BCF12D0FA1F13F
:10116000150108BFC2F50470092900F2C580DFE847
:1011700001F0050E17262C32383E444A80B2002872
:1011800018BF012006B0BDE8B04000F00BB980B236
:10119000002818BF012006B0BDE8B04000F05CBDDB
:1011A00040F2F401C2F20001002280B2002818BF10
:1011B00001200A6006B0BDE8B04000F041BD80B239
:1011C00006B0BDE8B04000F0D1BAC0B206B0BDE88C
:1011D000B04000F01BBCC0B206B0BDE8B04000F0AB
:1011E0005BBBC0B206B0BDE8B04000F0DBBB80B274
:1011F00006B0BDE8B04000F0F7BC80B206B0BDE874
:10120000B04000F0FFBC80B206B0BDE8B04000F0D6
:1012100009BD002439E000F0ADF835E040F2980057
:10122000C2F2000006E000F0B5F82DE040F20C102C
:10123000C2F2000000680021C4F2C82103F04AFC99
:1012400003F018FC20E000F0B3F804E000F00AFD21
:1012500001E000F0FBFC0446002818BF012414E064
:1012600000F008FB10E000F0B3FC0DE000F0B6FC6D
:101270000AE000F06FFA07E000F072FA04E000F014
:10128000FFFA01E000F002FB04462F20EAB244F628
:10129000B4410DF112058DF80700C0F60001284693
:1012A00003F058F9BDF8120024B2ADF80800302060
:1012B00044F6B9418DF80A00C0F6000128462246DE
:1012C00003F048F92B20002C48BF2D208DF80B008F
:1012D0009DF81200DDF813108DF80C000A208DF82F
:1012E000110043F60000CDF80D10C4F201000DF11D
:1012F00007010B22FFF778FE06B0B0BDB0B586B08F
:101300000C4602462F2044F6B4410DF112058DF82B
:101310000700C0F60001284603F01CF9BDF81200D2
:1013200044F6B941ADF8080030208DF80A00C0F647
:1013300000012846224603F00DF92B20002C48BF5F
:101340002D208DF80B009DF81200DDF813108DF89C
:101350000C000A208DF8110043F60000CDF80D10A6
:10136000C4F201000DF107010B22FFF73DFE06B0AC
:10137000B0BD000040F29C00C2F20000B0F90000D5
:10138000704700BF40F28600C2F20000B0F90000D2
:10139000704700BF40F21010C2F20000B0F9000028
:1013A000704700BF40F28801C2F200010870704728
:1013B00040F28800C2F200000078704710B540F299
:1013C0007D10C2F20000027840F20A0C2F2AC2F20D
:1013D000000C04BF0020ACF80000BCF90030002B6A
:1013E0001ED4581C81B2ACF8000040F27800C2F262
:1013F00000000929C25418BF10BD4FF6FF71B0F8A4
:101400000740ACF800100721FFF706FE844207D121
:1014100040F27800C2F20000BDE8104000F002B8CF
:1014200010BD00BF2DE9F04784B090F9064044F2AA
:101430000048B4F1FF3FC4F2000876DDB0F90110B6
:101440004FF61845CFF6FF7540F2004A11F57A7F46
:10145000C8BF0D46C4F34006C4F6000AB5F57A7F4E
:10146000A8BF4FF47A75B0F8049090F90370504615
:101470004FF40041324601F053F986F00102504624
:101480004FF4004101F04CF904F00100FEF788FF31
:101490002846FEF78BFF022F07D844F68C40C0F693
:1014A000000050F82700A0F8009000F0CFFB0546A0
:1014B00000F0D8FB40F20211C2F20001097845EABF
:1014C000400040F2880240EA81002F21C2F200026F
:1014D0008DF8001040F298011278C2F200010968FC
:1014E00040EAC2008DF80100CDF8021040F20C1065
:1014F00040F2FC01C2F20000C2F20001006809687B
:101500006D46CDF80600CDF80A1028460E21FFF7EB
:1015100083FDADF80E00404629461022FFF764FD1A
:10152000FFF7C0FC04B0BDE8F087404602F034FC91
:101530000020FEF735FF0020FEF738FF4FF0904007
:101540004FF40061002201F0EBF800BF01F012F847
:10155000FCE700BF022888BF704744F68C4240B2C7
:10156000C0F6000252F820000180704710B584B028
:1015700040EA41002F218DF8001040F29801C2F29C
:10158000000140EA8200096840EAC3008DF80100CA
:10159000CDF8021040F20C1040F2FC01C2F2000043
:1015A000C2F20001006809686C46CDF80600CDF86B
:1015B0000A1020460E21FFF72FFDADF80E0044F271
:1015C0000040C4F2000021461022FFF70DFD04B0D8
:1015D00010BD00BF40F20211C2F200010870704756
:1015E00040F20210C2F2000000787047F0B581B0FE
:1015F00040F29700C2F20000017840F29607C2F272
:10160000000740F2950601313B78C2F20006CAB2EB
:1016100001703178581C3870481C307040F222102C
:10162000C2F20000007840F20045C4F60005824294
:101630004FF0000228464FF400414FF0000438BF3D
:10164000012201F06DF840F22111C2F20001387858
:1016500009780022884228464FF4004138BF012211
:1016600001F05EF840F22011C2F2000130780978F2
:10167000884238BF012428464FF40041224601B079
:10168000BDE8F04001F04CB810B540F21314C2F2BE
:1016900000042078032819D140F2E800C2F20000CB
:1016A000018840F21202C2F20002013112888BB2AC
:1016B000934201800AD340F2F802C2F2000212887B
:1016C00000210180501C80B200F050F820780228E0
:1016D0001AD140F28E00C2F20000018840F21002DE
:1016E000C2F20002013112888BB2934201800BD307
:1016F00040F2F802C2F2000212880021018002F1D9
:10170000320080B200F032F82078042818BF10BDF3
:1017100040F22C11C2F20001088840F21402C2F219
:1017200000020130128883B29342088000D210BDBB
:1017300040F22E13C2F20003187800220A8080F0D3
:101740000101002818BF3F201970BDE8104000F0CB
:10175000A3B800BF40F21310C2F200000078704737
:1017600040F21200C2F200000088704740F2F80117
:10177000C2F20001B0F53F7F88BF0020088040F230
:101780000801C2F20001097844F6BE42C0F6000228
:10179000515C40F20E02C2F200021278FE2801F102
:1017A000010C06D8A0F1AA035343C3F52A53DB1159
:1017B00010E04308FE2B06D86FF05403534303F5A3
:1017C0002A53DB1106E047F6AD530344534303F5B8
:1017D0002A53DB09DBB203FB0CF340F222111B0A94
:1017E000C2F20001FE280B7006D8A0F1550151434A
:1017F00001F52A51CB110FE04108FE2906D8A0F2CD
:10180000A9115143C1F52A51CB1105E047F6AB713F
:10181000514301F52A51CB09D9B201FB0CF140F239
:101820002113090AC2F20003FE28197006D86FF0CE
:101830005400504300F52A50C01110E04108FE2921
:1018400006D8A0F5AA70504300F52A50C01106E052
:1018500047F6585108445043C0F52A50C009C0B259
:1018600000FB0CF040F22011000AC2F200010870E7
:10187000704700BF40F2F800C2F2000000887047D5
:1018800040F21000C2F200000088704740F21400DD
:10189000C2F200000088704740F20801C2F2000165
:1018A0003F2828BF3F20087044F6BE41C0F6000123
:1018B000085C40F2F801C2F200010A8840F20E0111
:1018C000C2F200010978B2F53F7F88BF0022FE2AEC
:1018D00000F1010C06D8A2F1AA034B43C3F52A5329
:1018E000DB1110E05308FE2B06D86FF054034B4376
:1018F00003F52A53DB1106E047F6AD5313444B437F
:1019000003F52A53DB09DBB203FB0CF340F2221090
:101910001B0AC2F20000FE2A037006D8A2F155008D
:10192000484300F52A50C3110FE05008FE2806D89E
:10193000A2F2A9104843C0F52A50C31105E047F6AA
:10194000AB70484300F52A50C309D8B200FB0CF035
:1019500040F22113000AC2F20003FE2A187006D8D2
:101960006FF05400484300F52A50C11110E05008B0
:10197000FE2806D8A2F5AA70484300F52A50C111E6
:1019800006E047F6585010444843C0F52A50C109B4
:10199000C8B200FB0CF040F22011000AC2F20001B4
:1019A0000870704780B50021062828BF0846421EEF
:1019B000032A40F21312C2F20002107016D840F24D
:1019C000F800C2F200000088FFF7D0FE40F20E00DF
:1019D000C2F20000007800F019F840F20800C2F2EC
:1019E00000000078BDE88040FFF756BF40F22210AB
:1019F000C2F20000017040F22110C2F2000001703A
:101A000040F22010C2F20000017080BD40F20E01D1
:101A1000C2F20001802828BF8020087040F208012F
:101A2000C2F2000140F2F802097844F6BE43C2F265
:101A30000002C0F600031288595CB2F53F7F88BFF0
:101A40000022FE2A01F1010C06D8A2F1AA034343A9
:101A5000C3F52A53DB1110E05308FE2B06D86FF0B4
:101A60005403434303F52A53DB1106E047F6AD5315
:101A70001344434303F52A53DB09DBB203FB0CF3A6
:101A800040F222111B0AC2F20001FE2A0B7006D896
:101A9000A2F15501414301F52A51CB110FE0510844
:101AA000FE2906D8A2F2A9114143C1F52A51CB1152
:101AB00005E047F6AB71414301F52A51CB09D9B294
:101AC00001FB0CF140F22113090AC2F20003FE2AC5
:101AD000197006D86FF05401484300F52A50C01120
:101AE00010E05108FE2906D8A2F5AA71484300F576
:101AF0002A50C01106E047F6585111444843C0F53A
:101B00002A50C009C0B200FB0CF040F22011000ABC
:101B1000C2F2000108707047B0F53F7F88BF002017
:101B2000FE2804D8AA384843C0F52A5007E04208E6
:101B3000FE2A07D86FF05400484300F52A50C01120
:101B4000C0B2704747F6AD521044484300F52A50E2
:101B5000C009C0B2704700BFB0F53F7F88BF00200A
:101B6000FE2804D85538484300F52A5007E04208BB
:101B7000FE2A07D8A0F2A9104843C0F52A50C01188
:101B8000C0B2704747F6AB70484300F52A50C00911
:101B9000C0B27047B0F53F7F88BF0020FE2803D851
:101BA0006FF05400484305E04208FE2A07D8A0F52C
:101BB000AA70484300F52A50C011C0B2704747F6DA
:101BC000585210444843C0F52A50C009C0B270476B
:101BD00040F20E00C2F200000078704740F20800A8
:101BE000C2F200000078704740F21201C82898BF86
:101BF000C820C2F20001B0F57A7F28BF4FF47A7096
:101C00000880704740F21001B0F52F7F98BF4FF465
:101C10002F70C2F20001B0F5166F28BF4FF41660A6
:101C20000880704740F21401282898BF2820C2F28B
:101C30000001B0F5C87F28BF4FF4C8700880704716
:101C400040F27C11C2F200010870704740F27C1033
:101C5000C2F200000078704740F20111C2F20001A8
:101C60000870704740F20110C2F20000007870471F
:101C700080B540F2093000F0BFFE40F20930BDE807
:101C8000804000F0C9BE00BF42F20840C4F201002B
:101C90000168C90718BF7047016841F00101016080
:101CA000704700BF42F20840C4F20100016821F011
:101CB00001010160704700BF42F20840C4F2010018
:101CC000016841F00801016001680907FCD401685E
:101CD00041F00401016000BF01684907FCD470476E
:101CE00042F20840C4F20100016841F480710160D1
:101CF000704700BF42F20840C4F20100016821F4BD
:101D000080710160704700BF42F20840C4F20100D8
:101D1000016841F400010160704700BF42F20840D1
:101D2000C4F20100016821F400010160704700BFA6
:101D300042F20840C4F20100016841F08071016084
:101D4000704700BF42F20840C4F20100016821F070
:101D500080710160704700BF42F20442C4F2010288
:101D60001368022823F4C053136011D0012818BF50
:101D70007047106820F4604010604FF4604000EB42
:101D80004130116880B2084310604FF4006001E0F8
:101D90004FF48050116808431060704742F20442CB
:101DA000C4F20102002900F4807105D0B9B94105DF
:101DB0001BD480071FD4704719B1116821F48071BA
:101DC0001160410503D5116821F48061116080071D
:101DD00058BF7047506820F002005060704711688B
:101DE00041F4807111604105E3D5116841F48061CF
:101DF00011608007DFD5506840F0020050607047E6
:101E000042F20841C4F201010A68002822F400628B
:101E100018BF02F500620A60704700BF022814D0A4
:101E2000012818BF704742F22C40C4F2010002683A
:101E300022F4700202604FF4700202EB015102685A
:101E400001F4700111430160704742F22C40C4F26A
:101E50000100C26822F44012C2604FF4401202EB4B
:101E60000151C26801F440111143C160704700BFC5
:101E700080B5B1F1120342F20C4C18BF0B46052895
:101E8000C4F2010C0DD8DCF828E000EB80001F2123
:101E900081402EEA010103FA00F00843CCF8280043
:101EA00020E00B280ED800EB8000DCF824E01E3880
:101EB0001F2181402EEA010103FA00F00843CCF80B
:101EC00024000FE00F280DD800EB8000DCF820E0A4
:101ED0003C381F2181402EEA010103FA00F008433B
:101EE000CCF82000092B0CD8DCF8040003EB4301EC
:101EF00007238B40984302FA01F10843CCF8040011
:101F000080BD112B88BF80BD03EB4301DCF80000CE
:101F10001E3907238B40984302FA01F10843CCF89D
:101F2000000080BD80B542F2384CC4F2010CDCF8F0
:101F30000030DCF800E0C3F30153181A00EB800016
:101F4000C0F10F001F2383402EEA030301FA00F0C3
:101F500018430929CCF800000CD85CF8280C01EBD8
:101F6000410107238B40984302FA01F108434CF8E2
:101F7000280C80BD122988BF80BD01EB41015CF8AF
:101F80002C0C1E3907238B40984302FA01F10843B9
:101F90004CF82C0C80BD00BF42F21442C4F2010286
:101FA000536AC3F30153C01A033003289CBF6FF375
:101FB0001F3142F82010704742F20842C4F2010279
:101FC000002900F0010103D079B9800713D47047CC
:101FD00019B1116821F480111160800758BF704752
:101FE000106820F4004010607047116841F48011BF
:101FF00011608007EBD5106840F400401060704716
:10200000012805D0022818BF70476FF4E04001E0B6
:102010006FF4602042F20842C4F2010213681840D3
:102020001060106808431060704700BFC10742F29B
:102030000841C4F2010103D00A6842F480020A6038
:10204000800758BF7047086840F400100860704768
:1020500042F24C40C4F20100006880B2704700BFF9
:1020600003280AD8DFE800F0020C131A42F23C40C1
:10207000C4F20100006880B27047002080B270474F
:1020800042F23C40C4F20100406880B2704742F224
:102090003C40C4F20100806880B2704742F23C408C
:1020A000C4F20100C06880B2704700BF42F2004134
:1020B000C4F201010968084018BF0120704700BF41
:1020C00042F20041C4F201010A6822EA00000860FD
:1020D000704700BF012807D0042807D002281CBF82
:1020E00000207047202102E0402100E0802142F2E0
:1020F0000042C4F20102136852681840114018BF30
:102100000121002818BF01200840704742F2004119
:10211000C4F201010A6822EA00000860704700BFAB
:10212000C10742F20441C4F2010103D00A6842F03F
:1021300040020A60820703D50A6842F020020A6062
:10214000400758BF7047086840F08000086070473B
:10215000C10742F20441C4F2010103D00A6822F02F
:1021600040020A60820703D50A6822F020020A6052
:10217000400758BF7047086820F08000086070472B
:1021800042F20441C4F201010A684FF6E053CFF66F
:102190003F731A400A600A6810430860086840F4F8
:1021A000400040F400700860704700BF42F20441F4
:1021B000C4F201010A684FF6FF53CFF63F730138AE
:1021C0001A40C3B2022B0A6088BF704740B203A214
:1021D00052F820000A681043086070470000800031
:1021E000000040000000C00042F20440C4F20100C0
:1021F00001684FF6E052CFF63F7211400160704720
:1022000042F224426FF31F30C4F201026FF31F3118
:102210005060116070470000042200EB8001C4F29E
:10222000020202EB81014B68800023F001034B6046
:1022300000234B608B60CB600B610F21136801FAA8
:1022400000F018431060704700210122C0E900111E
:10225000C0E90221C0E90412C0E906110162704719
:1022600010B540F2080ED1F800C000EB8000C4F2B7
:10227000020E0EEB8003C3F808C0CA68DA60CA69B0
:102280005A605EF820204B6822F47C5C0A690C6A74
:1022900043EA0C031A4322434EF820208A685EF872
:1022A0002030002A23F0400308BF40334EF820308E
:1022B0004A695EF82030002A23F0800308BF80338B
:1022C0004EF8203089695EF82020002922F01002A3
:1022D00018BF10324EF8202010BD00BF082100EBBF
:1022E0008000C4F2020151F8202042F0200241F89F
:1022F00020207047082100EB8000C4F2020151F851
:10230000202022F0200241F820207047082100EB15
:102310008000C4F2020151F8202042F4804241F8CA
:1023200020207047082100EB8000C4F2020151F820
:10233000202022F4804241F820207047082100EB41
:102340008000C4F2020151F8202042F0010241F85D
:1023500020207047082100EB8000C4F2020151F8F0
:10236000202022F0010241F820207047102200EBCB
:102370008000C4F2020242F820107047142200EBE1
:102380008000C4F2020242F8201070470C2200EBD9
:102390008000C4F2020242F8201070470C2100EBCA
:1023A0008000C4F2020151F820007047082200EBBF
:1023B0008000C4F2020252F8203023F44053194343
:1023C00042F82010704700BF082200EB8000C4F2E2
:1023D000020252F8203023F44063194342F82010DF
:1023E000704700BF082200EB8000C4F2020252F8DE
:1023F000203023F44073194342F82010704700BF87
:10240000082100EB8000C4F2020151F8202042F0C4
:10241000800241F820207047082100EB8000C4F2C0
:10242000020151F8202022F0800241F8202070475C
:10243000082100EB8000C4F2020151F8202042F094
:10244000400241F820207047082100EB8000C4F2D0
:10245000020151F8202022F0400241F8202070476C
:10246000082200EB8000C4F2020252F8203000295A
:1024700023F0100318BF103342F82030704700BF1C
:1024800080B54B1E072B4FF0000131D840F2000CF5
:10249000C4F2020CDFE803F0040E2C132C2C2C18D1
:1024A000DCF8001082000F239340194021FA02F358
:1024B0000E2113E0DCF800E08300022108E0DCF8E4
:1024C00000E08300042103E0DCF800E08300082141
:1024D00001FA03F202EA0E0222FA03F300EB800093
:1024E0000CEB80008068084010EA030118BF01214E
:1024F000084680BD0422C4F202028000136801FA7B
:1025000000F0184310607047082200EB8000C4F20E
:10251000020252F82030194342F82010704700BFE1
:10252000082200EB8000C4F2020252F8203023EAB5
:10253000010142F8201070470022C4F20202126822
:10254000800001FA00F0104018BF0120704700BF62
:102550000422C4F202028000136801FA00F018435A
:102560001060704743F20000C4F2000000210160D7
:10257000704700BF43F20000C4F200004AF6AA21EF
:102580000160704743F20000C4F200004CF6CC41F9
:102590000160704743F20001C4F2000145F2555258
:1025A0000A600222CFF6F072CB6803F004031AB17E
:1025B000002B02F10102F7D1002B11BF00206FF3B5
:1025C0001F3008610120704780B540F2020ECFF63F
:1025D000F07E43F2000CC4F2000C45F255527346F3
:1025E000CCF80020DCF80C2002F001021BB1002A1C
:1025F00003F10103F6D16AB9CCF80410DCF80C1031
:10260000BEF1000F01F0020103D000290EF1010E0E
:10261000F4D109B1002080BD6FF31F30CCF8080061
:102620004AF6AA20CCF80000012080BD43F20C013C
:10263000C4F200010968084018BF0120704700007B
:1026400000F138404FEAB020052888BF7047C1B27A
:102650002F2222FA01F1C90700D1704710B544F6C4
:102660009841C0F6000131F81040204600F0C4F94E
:102670002046BDE8104000F0CFB900BF2DE9F04181
:10268000D0F800E0D0F80CC000244FF0030800267A
:1026900005E000BF0136102E04F1020412D023FA27
:1026A00006F7FF07F6D008FA04F72EEA070E01FA3C
:1026B00004F54EEA050E2CEA070702FA04F547EA8C
:1026C000050CE7E7C0F800E0C0F80CC0BDE8F081F9
:1026D000B0B50129416814BF994319434160D0F84E
:1026E00008C000214FF0030E002404E00134102C38
:1026F00001F102010CD023FA04F5ED07F6D00EFA31
:1027000001F52CEA050C02FA01F54CEA050CEDE79F
:10271000C0F808C0B0BD00BF8161704781627047DA
:102720001823002A08BF28231950704741617047B9
:102730000069084018BF0120704700BF006980B2DF
:10274000704700BF4069084018BF0120704700BFB4
:10275000406980B2704700BFF0B5D0F820E0D0F8F3
:1027600024C000230F27002505E000BF0135082DF8
:1027700003F104030CD022FA05F6F607F6D007FAA7
:1027800003F62EEA060601FA03F446EA040EEDE724
:10279000082300240F2504E00133102B04F1040466
:1027A0000CD022FA03F6F607F6D005FA04F62CEA66
:1027B000060701FA04F647EA060CEDE7C0F820E048
:1027C000C0F824C0F0BD00BF41F48032C261C161D5
:1027D000C261C169C069704740F080604EF60C511B
:1027E00040F0FD70CEF20001086070474EF60C5CC0
:1027F000CEF2000CDCF8003003F4E063B3F5E06FD8
:1028000003D14FF0000C04232BE0DCF8003003F47C
:10281000E063B3F5C06F03D14FF0010C032320E058
:10282000DCF8003003F4E063B3F5A06F03D10223BA
:102830004FF0020C15E0DCF8003003F4E063B3F570
:10284000806F03D14FF0030C01230AE0DCF8003065
:102850004FF0040C03F4E063B3F5407318BF012399
:102860009B0099400F2323FA0CF31A4011434EF2B8
:102870000012CEF20002090140EA020383F80013BD
:1028800000F01F01012303FA01F11C2303EAD00029
:102890008150704700F01F01012202FA01F14EF24F
:1028A0008012CEF2000242EAD00020F00300016064
:1028B000704700BF4FF68072C1F6FF7211400843A7
:1028C0004EF60851CEF20001086070474EF61051E6
:1028D000CEF200010A681043086070474EF61051AE
:1028E000CEF200010A6822EA00000860704700BFCB
:1028F0004EF21001CEF200010A68042822F0040210
:1029000008BF04320A60704741F20400C4F20200BA
:1029100050F8041C41F0010140F8041C50F8041C5C
:102920008907FBD501680C22C0F6FF021140016047
:1029300001684FF6FF72CFF2C0721140016001686A
:102940004FF6FF7221F44001016050F8041CCFF6ED
:10295000F262114040F8041C816A40F2431221F0F7
:102960000F018162C16A9143C162016B21F00101D3
:10297000016300214160704741F2000300F01F0134
:102980008009C4F202034FF0010CC2580CFA01F1A5
:102990001143C150704700BF41F2000300F01F0116
:1029A0008009C4F202034FF0010CC2580CFA01F185
:1029B00022EA0101C150704741F2000300F01F01FB
:1029C0008009C4F202034FF0010CC2580CFA01F165
:1029D0001143C150704700BF41F2000300F01F01D6
:1029E0008009C4F202034FF0010CC2580CFA01F145
:1029F00022EA0101C150704741F2000300F01F01BB
:102A00008009C4F202034FF0010CC2580CFA01F124
:102A10001143C150704700BF41F2000300F01F0195
:102A20008009C4F202034FF0010CC2580CFA01F104
:102A300022EA0101C150704741F22000C4F20200B5
:102A4000016841F480310160704700BF41F220000D
:102A5000C4F20200016821F480310160704700BFB8
:102A600041F20401C4F202010A6822F00302104399
:102A70000860704741F20400C4F20200006800F0F0
:102A80000C00704741F20401C4F202010A6822F00E
:102A9000F00210430860704741F20401C4F20201E1
:102AA0000A6822F4E06210430860704741F20401B2
:102AB000C4F202010A6822F46052104308607047B1
:102AC00041F20401C4F202010A68042822F44042DF
:102AD0000A60CA6A22F48072CA6288BF7047DFE85F
:102AE00000F003080A0E1200C86A20F48070C86261
:102AF000704708680AE0086840F4804006E008680B
:102B000040F4004002E0086840F440400860C86AB1
:102B100040F48070C862704741F20401C4F20201BF
:102B20000A6822F440020A600A681043086070478D
:102B300041F20402C4F202021368084323F077430F
:102B400018431060704700BF41F20402C4F2020251
:102B5000D2F800C04FF6FF73CFF2C27303EA0C0342
:102B600013601368084318431060704741F2300146
:102B7000C4F202010A6822F003020A600A681043E4
:102B80000860704741F23001C4F202010A6822F085
:102B900040020A600A6810430860704741F2200151
:102BA000C4F202010A6822F440720A600A68104303
:102BB0000860704741F22C01C4F202010A6822F059
:102BC0000F0210430860704741F22001C4F2020175
:102BD0000A6822F018020A600A6810430860704709
:102BE00041F200028109C4F20202895800F01F007C
:102BF00021FA00F000F00100704700BF41F224000C
:102C0000C4F20200016841F080710160704700BFAA
:102C100041F20801C4F202010968084018BF01200E
:102C2000704700BF41F20801C4F202010A68104374
:102C30000860704741F20801C4F202010A681043BB
:102C40000860704741F20801C4F202010A6822EAF2
:102C500000000860704700BF0146B0F5006F4FF0FC
:102C600000001DDAE1B3102950D0182940F09580FA
:102C700041F2000C4FF6FE71C4F2020CC0F20F01DB
:102C8000002200BFDCF80000013942F1000380019E
:102C900001D4002BF6D1DCF80000C0F3406070478F
:102CA0004AD0B1F5106F61D0B1F5506F18BF7047C1
:102CB00041F2000C4FF6FE71C4F2020CC0F20F019B
:102CC000002200BFDCF83400013942F10003800724
:102CD00001D4002BF6D1DCF83400C0F3400070477B
:102CE00041F2000C40F2FF40C4F2020C002200BF8F
:102CF000DCF80010013842F10003890701D4002BF1
:102D0000F6D1DCF80000C0F34000704741F2000C3F
:102D100040F2FF70C4F2020C002200BFDCF8001089
:102D2000013842F10003890301D4002BF6D1DCF80D
:102D30000000C0F3404070474FF6FE7141F2000CB6
:102D4000C0F20F01C4F2020C01F17C71002200BF3D
:102D5000DCF82000013942F10003800701D4002B88
:102D6000F6D1DCF82000C0F34000704741F2000CBF
:102D70004FF6FE71C4F2020CC0F20F01002200BF38
:102D8000DCF82400013942F10003800701D4002B54
:102D9000F6D1DCF82400C0F34000704741F2000394
:102DA00000F01F018009C4F202034FF0010CC25869
:102DB0000CFA01F11143C150704700BF41F200030A
:102DC00000F01F018009C4F202034FF0010CC25849
:102DD0000CFA01F122EA0101C1507047B0F5006F11
:102DE0000FD0102818BF704741F20000C4F2020053
:102DF0000168026841F4802122F48032026001609F
:102E0000704741F20000C4F20200016A026A41F018
:102E1000040122F00102026201627047B0F5006F06
:102E20000FD0102818BF704741F20000C4F2020012
:102E30000168026821F4802122F48032026001607E
:102E4000704741F20000C4F20200016A026A21F0F8
:102E5000040122F0010202620162704741F20000A7
:102E6000C4F20200016841F400210160704700BF14
:102E700041F20000C4F20200016821F40021016067
:102E8000704700BF41F20001C4F202010A6822F05B
:102E9000F80242EAC0000860704700BF41F2340106
:102EA000C4F202010A6822F0F80242EAC000086097
:102EB000704700BF41F20010C4F202000168002117
:102EC0000160016843F64D42C1F62B2211430160B7
:102ED000704700BF41F23411C4F202010A6822F0C7
:102EE00007020A600A6810430860704741F238110F
:102EF000C4F202010A6822F001020A600A68104363
:102F00000860704770B541F20402C4F20202014643
:102F1000106841F2002CC0F27A0C00F00C00082876
:102F2000634619D11068136815681B014FF011032F
:102F3000C0F3834058BF0223ED03184405D440F684
:102F40000013C0F23D03434306E0936A03F00F030E
:102F50000133BCFBF3F343431468D2F800E010687C
:102F600006291ED8C4F303142FA52C5D44F6A445EE
:102F7000C0F60005C0F3C220285C23FA04F424FA4A
:102F800000F0DFE801F00410123A0618200018469D
:102F900070BDD16AC90531D449F68070C0F2D50040
:102FA00070BD002070BD204670BDCEF30220285CAD
:102FB00024FA00F070BDD06A40064FF4004058BFBC
:102FC00048F2120070BDD16A890708BF70BDD06A8F
:102FD00000F00300012818460FD0D06A00F003006B
:102FE000022804BF4FF4004070BDD06A00F0030017
:102FF000032818BF4FF0000C604670BD1168C1F384
:103000008131DFE801F00204060E400870BD80083F
:1030100070BD4AF6AB21CAF6AA21A0FB01018808BF
:1030200070BDC00870BD00BF0000000000000000BF
:10303000010203040607080910B542F6FF31C4F285
:103040000101884211DC40F6FF71C4F200018842A0
:1030500020DCB0F1804F3CD040F20041C4F20001CE
:10306000884249D140F201443EE044F2FF31C4F2CB
:10307000010188421DDC42F60041C4F20101884290
:103080002AD044F20001C4F20101884234D14FF445
:10309000447429E041F20001C4F2000188421ED0CC
:1030A00042F20001C4F20001884225D14FF481644C
:1030B0001AE044F20041C4F20101884212D044F601
:1030C0000001C4F20101884218BF10BD40F2123461
:1030D0000AE04FF4806407E040F20B3404E040F271
:1030E000044401E040F211342046FFF785FC2046FD
:1030F000BDE81040FFF790BC10BD00BF00214FF6A7
:10310000FF72C0E900118260017370470A8842F6BD
:10311000004CB0F1804FC4F2010C826218BF6045D0
:103120002ED1036823F0700303604B8802681A43B2
:1031300002608A8803681A43026042F6FF338A6895
:10314000C4F201039842C2620ADD44F2FF32C4F2C3
:10315000010290421BDC604525D044F200021EE0D3
:10316000B0F1804F1FD040F20042C4F20002904202
:1031700019D042F20002C4F20002904213D02AE0B9
:1031800040F20043C4F200039842CAD0D5E744F6A7
:103190000002C4F20102904205D044F20042C4F29F
:1031A0000102904217D1026822F440720260CA887C
:1031B00003681343A0F18042A2F596324FEAB2228F
:1031C000072A036007D8012303FA02F212F0E10F85
:1031D0001CBF097B0163416941F0010141617047F6
:1031E000016841F001010160704700BF016821F0F2
:1031F00001010160704700BF016841F0800101607A
:10320000704700BF016821F080010160704700BF76
:10321000016821F002010160704700BF016841F0C0
:1032200002010160704700BF026822F06002026084
:103230000268114301607047016821F010010160CC
:10324000704700BF016841F010010160704700BF86
:10325000002A816218BF7047416941F00101416154
:10326000704700BF01637047C16270474162704799
:10327000406A7047806A80B2704700BF012907D05A
:10328000002918BF7047016841F0080101607047CC
:10329000016821F008010160704700BF012907D0D3
:1032A000002918BF7047016841F0040101607047B0
:1032B000016821F004010160704700BF39B10129A4
:1032C00018BF7047816841F00801816070478168CC
:1032D00021F0080181607047C2681143C1607047E6
:1032E000C26822EA0101C160704700BFC26800697C
:1032F0000A40084018BF0120002A18BF01221040D0
:10330000704700BFC9430161704700BF00690840B2
:1033100018BF0120704700BFC9430161704700BF5B
:10332000C2681143C1607047C26822EA0101C160EE
:10333000704700BF012907D0002918BF70474168B6
:1033400041F0080141607047416821F00801416087
:10335000704700BFD0F848C041F61F732CEA030342
:103360008364836C1143194381647047426911433C
:10337000416170470021C0E90011C0E90211C0E9B4
:103380000411704710B5D1E900230C891A434B8909
:10339000D1E903CE22431A43496942EA0C0242EAC8
:1033A0000E021143416410BD416C41F480514164EF
:1033B000704700BF416C21F480514164704700BFE9
:1033C000416C41F480414164704700BF416C21F47D
:1033D00080414164704700BF426C012922F40042E1
:1033E00008BF02F500424264704700BF42680129ED
:1033F00022F0010208BF013242607047012907D064
:10340000002918BF7047416821F0040141607047EE
:10341000416841F004014160704700BF0021818193
:10342000C0E9001181607047032900F20F81DFE8D5
:1034300001F0028D46D4016A21F001010162816927
:1034400021F0030181611168036A19430162016A75
:1034500021F002010162D188036A0B43A0F180418F
:10346000A1F596314FEAB1210729036200F2EE80FF
:10347000012303FA01F111F0E10F00F0E780016A86
:1034800021F0040101629188036A19430162016A13
:1034900021F0080101621189036A1943016250F8A1
:1034A000041F21F480710160518903681943016090
:1034B000016821F40071016093890268C3E0016A28
:1034C00042F6044C21F480710162C169C4F2010C1E
:1034D00021F00301C1611168036A43EA012101621D
:1034E000016A21F400710162D388016A41EA032173
:1034F000ACF104039842016240F0A880016A21F413
:10350000806101629188036A43EA01210162016AD4
:1035100021F4006101621189036A43EA0121016219
:10352000DCF8000020F48050CCF800005089DCF872
:10353000001041EA0010CCF80000DCF8000020F494
:103540000050CCF80000908902016DE0016A21F082
:1035500010010162816921F4407181611168036A7F
:1035600043EA01110162016A21F020010162D18860
:10357000036A43EA011144F20003C4F201039842D2
:10358000016255D042F60041C4F2010188425DD18A
:10359000016A21F0400101629188036A43EA011146
:1035A0000162016A21F0800101621189036A43EA24
:1035B0000111016242F60440C4F20100016821F4E5
:1035C000806101605189036843EA810101600168FB
:1035D00021F400610160918933E0016A42F6044CF4
:1035E00021F480510162C169C4F2010C21F44071DF
:1035F000C1611168036A43EA01310162016A21F481
:1036000000510162D388016A41EA0331ACF104033D
:103610009842016218BF7047DCF8000020F4804037
:10362000CCF8000050898201DCF8003060460AE0E6
:1036300044F20400C4F20100016821F480610160D9
:10364000518903688A0042EA03010160704700BFA4
:10365000032988BF7047DFE801F0020E050B50F820
:10366000181F01E050F81C1F21F07001016008E0F4
:1036700050F81C1F01E050F8181F21F4E04112021D
:103680000160016811430160704700BF03299CBFBE
:1036900000EB810042637047032988BF7047DFE871
:1036A00001F0020E050B50F8181F01E050F81C1F26
:1036B00021F00801016008E050F81C1F01E050F8FB
:1036C000181F21F4006112020160016811430160BA
:1036D000704700BF032988BF7047DFE801F0020E82
:1036E000050B50F8181F01E050F81C1F21F00401D1
:1036F000016008E050F81C1F01E050F8181F21F489
:10370000806112020160016811430160704700BFCF
:10371000032988BF7047DFE801F0020E050B50F85F
:10372000181F01E050F81C1F21F08001016008E023
:1037300050F81C1F01E050F8181F21F4004112023C
:103740000160016811430160704700BF032988BF11
:103750007047DFE801F00216080F50F8201F21F033
:103760000201016013E050F8201F120221F40071E1
:1037700001600CE050F8201F120321F40051016099
:1037800005E050F8201F120121F0200101600168BE
:1037900011430160704700BF032988BF7047DFE80D
:1037A00001F00216080F50F8201F21F008010160F7
:1037B00013E050F8201F120221F4006101600CE0B8
:1037C00050F8201F120321F40041016005E050F879
:1037D000201F120121F08001016001681143016086
:1037E000704700BF032988BF7047DFE801F0021669
:1037F000080F50F8201F21F00101016013E050F87C
:10380000201F120221F4807101600CE050F8201F8B
:10381000120321F48051016005E050F8201F1201CD
:1038200021F010010160016811430160704700BF81
:1038300002290AD001290FD0002918BF704750F87B
:10384000201F21F0040101600CE050F8201F12023B
:1038500021F48061016005E050F8201F120121F081
:103860004001016001681143016070474FF48031ED
:103870000160002141607047F0B5032900F28B80A0
:10388000DFE801F0021B355784465CF8203F4FF01B
:10389000010E23F00103CCF80030DCF8003023F0F7
:1038A0000A03CCF800301388DCF800703B43CCF8F6
:1038B0000030034653F8187F32E084465CF8203F1E
:1038C0004FF0100E23F01003CCF80030DCF800307D
:1038D00023F0A003CCF800301388DCF8007047EA2E
:1038E0000313CCF80030034653F8187F3AE08446BF
:1038F0005CF8203F4FF4807E23F48073CCF80030D6
:10390000DCF8003023F42063CCF800301388DCF8B6
:10391000007047EA0323CCF80030034653F81C7FBD
:1039200027F003071F6054881D6804266FF0F00716
:1039300021E084465CF8203F4FF4805E23F48053FE
:10394000CCF80030DCF8003023F42043CCF8003011
:103950001388DCF8007047EA0333CCF800300346E4
:1039600053F81C7F27F440771F6057881C683D027E
:103970000C266FF470472C431C601C683C401C6094
:10398000D4881D68B4402C431C60DCF8003043EA46
:103990000E03CCF80030032988BFF0BD9288DFE821
:1039A00001F00205080E50F8181F04E050F8181F27
:1039B00007E050F81C1F21F00C01016005E050F8F1
:1039C0001C1F21F440611202016001681143016073
:1039D000F0BD00BF032988BF7047DFE801F0020E89
:1039E000050B50F8181F01E050F81C1F21F00C01C6
:1039F000016008E050F81C1F01E050F8181F21F486
:103A0000406112020160016811430160704700BF0C
:103A100003298EBF002000EB8100406B704700BF80
:103A200070B514885688B4FA84F34FF0010E5B0920
:103A3000012E08BF4FF0020E056A00294FEA430C21
:103A40004FD025F010010162016A21F0A00101624E
:103A5000016A41EA04110162014651F8183F23F45A
:103A600040730B600B6843EA06230B600B6823F47A
:103A700070430B60D3880C6844EA03340C60046A1A
:103A800044F01004046292880C6824F440640C60D2
:103A90000C6844EA02240C60046A24F00104046205
:103AA000046A24F00A040462046A44EA0C0606620A
:103AB0000E6826F003060E600E6846EA0E060E60DB
:103AC0000E6826F0F0060E600E6846EA03130B60DF
:103AD000036A43F001030362086820F00C000860E9
:103AE0004CE025F001010162016A21F00A01016246
:103AF000016A21430162014651F8183F23F0030394
:103B00000B600B6833430B600B6823F0F0030B6012
:103B1000D3880C6844EA03140C60046A44F001047E
:103B2000046292880C6824F00C040C600C68144346
:103B30000C60046A120224F010040462046A24F087
:103B4000A0040462046A44EA0C1606620E6826F4B5
:103B500040760E600E6846EA0E260E600E6826F469
:103B600070460E600E6846EA03330B60036A43F04A
:103B700010030362086820F440600860086810437E
:103B8000086070BD012907D0002918BF704741683F
:103B900041F0800141607047416821F0800141603F
:103BA000704700BF826822F0700282608268114311
:103BB00081607047426822F070024260426811439F
:103BC00041607047826822F0070282608268114378
:103BD00081607047012907D0002918BF70478168AC
:103BE00041F0800181607047816821F0800181602F
:103BF000704700BFD0F808C011432CF43F4CC0F808
:103C000008C0D0F808C041EA0C018160816841EA2F
:103C100003218160704700BFD0F808C042EA031258
:103C20002CF0070CC0F808C0D0F808C041EA0C011D
:103C30008160D0F818C040F203312CEA01018161A3
:103C4000D0F818C040F2011141EA0C018161016A0B
:103C500021F00A010162016A21F0A0010162016AFA
:103C600011430162704700BF816821F00701816044
:103C7000704700BF826822F0700282608268114340
:103C80008160816821F007018160816841F007014E
:103C900081607047F0B5066A602911D126F01006E0
:103CA0000662066A120126F0A006066210244FF092
:103CB0000C0C6FF4704E4FF480756FF440760EE08C
:103CC00026F001060662066A4FF0040C26F00A068A
:103CD00006626FF0F00E01256FF003060124076AFB
:103CE00003FA0CF33A4302628269324082618269CC
:103CF0002A438261826902EA0E02826182691A4362
:103D00008261026A22430262826822F0700282604B
:103D1000826811438160816821F0070181608168B8
:103D200041F007018160F0BDD0F808C011432CF4C8
:103D30003F4CC0F808C0D0F808C041EA0C018160CF
:103D4000816841EA03218160816821F07701816007
:103D5000816841F077018160704700BFD0F808C0EA
:103D600011432CF43F4CC0F808C0D0F808C041EA19
:103D70000C018160816841EA03218160816841F41E
:103D800080418160704700BF816821F4804181607B
:103D9000704700BF0165704710B543F60001C4F2DB
:103DA0000101884209D044F20041C4F20001884276
:103DB00018BF10BD40F2114401E040F20E3420461D
:103DC000FEF71AFE2046BDE81040FEF725BE00BFF4
:103DD000B0B5044643F60000C4F2010084420D462B
:103DE00007D044F20040C4F20000844205D1022012
:103DF00000E00620FFF786F800E0002021680904B3
:103E000006D400EB5500B0FBF5F080B2E060B0BD29
:103E1000400000EB5500B0FBF5F04FF6F0710140AB
:103E2000C0F342000844E060B0BD00BF026822F069
:103E300001020260026822F4C0620260026811435B
:103E400001607047026822F001020260026822F4F9
:103E5000805202600268114301607047026822F0DC
:103E600001020260426822F44052426042681143FB
:103E700041607047016841F001010160704700BF77
:103E8000016821F001010160704700BF026822F063
:103E9000080202600268114301607047026822F064
:103EA0000402026002681143016070476FF35F21F2
:103EB00081627047406A6FF35F207047026801F4C7
:103EC000002122F001020260426822F400224260D6
:103ED00042681143416070470268072922F00102DD
:103EE000026088BF7047DFE801F004090E13181D57
:103EF0002227416841F4802141607047416821F4E4
:103F0000802141607047416841F400314160704751
:103F1000416821F4003141607047416841F48031CB
:103F200041607047416821F48031416070474168C9
:103F300041F4004141607047416821F40041416013
:103F4000704700BF016821F001010160816821F420
:103F500080518160704700BF016821F0010101605C
:103F6000816841F480518160704700BF026822F08F
:103F700001020260026822F40042026002681143FA
:103F800001607047026822F001020260826822F438
:103F9000006282608268114381607047416841F429
:103FA00080114160704700BF416821F48011416079
:103FB000704700BF426822F4C00242604268114369
:103FC00041607047016841F400510160704700BFD3
:103FD000016821F400510160704700BF026822F0BF
:103FE00001020260026822F400620260026811436A
:103FF00001607047026801F0100122F001020260C6
:10400000426822F0100242604268114341607047EA
:10401000026822F001020260426822F07F424260A0
:10402000426842EA01614160704700BF416841F463
:1040300000014160704700BF416821F40001416008
:10404000704700BF426902F07F42426142691143FA
:1040500041617047016821F001010160416841F44C
:1040600080414160704700BF016821F0010101609B
:10407000416821F480414160704700BF026801F04F
:10408000200122F001020260426811434160704742
:10409000016821F001010160816841F0080181603F
:1040A000704700BF016821F001010160816821F0C3
:1040B00008018160704700BF016821F001010160C3
:1040C000416841F400614160704700BF016821F020
:1040D00001010160416821F400614160704700BF47
:1040E000D0F800C001F480712CF0010CC0F800C0C1
:1040F000D0F804C002F400722CF4E06CC0F804C0E4
:10410000D0F804C041EA0C014160416811434160AC
:10411000416803F48062114341607047016821F0F7
:1041200001010160816841F020018160704700BF9A
:10413000016821F001010160816821F020018160A6
:10414000704700BF016821F001010160816841F002
:1041500010018160704700BF016821F0010101601A
:10416000816821F010018160704700BF0268090278
:1041700022F001020260026989B222F47F420261E8
:104180000269114301617047426922F07F42426136
:10419000426942EA01614161704700BF026801F073
:1041A000070122F001020260826822F4602282602C
:1041B000826842EA41418160704700BF016821F096
:1041C00001010160816841F002018160704700BF18
:1041D000016821F001010160816821F00201816024
:1041E000704700BF026801F0040122F00102026082
:1041F0008268114381607047026822F00102026008
:10420000026922F0FF0202610269114301617047F5
:10421000026822F001020260826822F480728260E9
:104220008268114381607047026822F001020260D7
:10423000826822F400728260826811438160704754
:10424000016821F001010160816841F480418160D1
:10425000704700BF016821F001010160816821F40D
:1042600080418160704700BF026801F01F0122F0A9
:1042700001020260026822F078720260026842EA7B
:1042800041510160704700BF026801F01F0122F038
:1042900001020260026822F4F8120260026842EA37
:1042A00001410160704700BF026801F4004122F043
:1042B00001020260826822F4004282608268114337
:1042C00081607047826822F04002826082681143F8
:1042D00081607047826822F08002826082681143A8
:1042E00081607047016821F001010160816841F43B
:1042F00000518160704700BF016821F00101016039
:10430000816821F400518160704700BF016841F06D
:1043100002010160704700BF016821F002010160E5
:10432000704700BF026801F4401122F001020260F0
:10433000826822F440128260826811438160704773
:104340008A09105801F01F01C84000F001007047B1
:1043500001F01F010122036A02FA01F1194301620F
:10436000704700BF01F01F02C1F389114FF0010C2B
:104370000B580CFA02F21A430A50704701F01F0260
:10438000C1F389114FF0010C0B580CFA02F223EA29
:1043900002020A50704700BF826911438161704771
:1043A000C1F3891252F800C08A0D105801F01F03A2
:1043B000C1F30441C8402CFA03F1084000F00100A9
:1043C000704700BFC1F304410122036A02FA01F100
:1043D00019430162704700000948804709480047B7
:1043E000FEE7FEE7FEE7FEE7FEE7FEE7FEE7FEE7A5
:1043F000FEE7FEE704480549054A064B7047000002
:10440000194400086901000880010020800900208B
:10441000800500208005002041F20400C4F2020063
:1044200050F8041C41F0010140F8041C50F8041C31
:104430008907FBD501680C22C0F6FF02114001601C
:1044400002684FF6FF71CFF2C0710A400260026845
:104450004FF6FF7322F44002026050F8042CCFF6AE
:10446000F2631A4040F8042C826A40F2431322F0AF
:104470000F028262C26A01F500319A43C262026B86
:1044800022F00102026300224260026802600268B8
:10449000026002680260026811400160016841F038
:1044A000006141F48021016050F8041C41F08071EA
:1044B00040F8041C50F8041C8901FBD5016821F068
:1044C00003010160016841F0020101600168090710
:1044D000FCD5704741F20400C4F20200016801F00B
:1044E0000C01082941F20021C0F27A011AD1D0F85A
:1044F00000C0036802681B014FF0110358BF02237C
:10450000D203CCF383421A4405D440F60011C0F222
:104510003D01514306E0836A03F00F030133B1FB11
:10452000F3F1514340F20002C2F200021160006850
:1045300004A1C0F30310085C116821FA00F01060B8
:10454000704700BF000000000000000001020304EB
:10455000060708090FB41CB5074B06AA7B44694639
:104560000090059800F06BF90020694600F07AF998
:104570001CBC5DF814FB00000503000070B5044688
:1045800085690068C10601D5302600E02026C007F5
:1045900007D070BDD4E9012130469047206A401C05
:1045A00020626D1EF6D570BD70B504468569007831
:1045B000C00707D170BDD4E9012120209047206AAF
:1045C000401C20626D1EF6D570BD00002DE9F04143
:1045D0000646002410687529314616A510D0AFF3A1
:1045E0000080002802DA404213A507E031688A07FC
:1045F00001D512A502E0490704D511A5012401E067
:10460000AFF3008000210A2206F1240709E0B0FB85
:10461000F2FCB0FBF2F302FB1C0030307854184679
:10462000491C0028F3D123462A463046BDE8F04114
:1046300000F0A7B8000000002D0000002B000000D3
:10464000200000002DE9F05F894604464FF0000A83
:10465000DFF824B1FB44C0F820A02046E168884779
:1046600000287DD0252806D0D4E901219047206A72
:10467000401C2062F1E700255F462046E16888473C
:104680002028064607DB312E05D2B81910F8200C79
:1046900008B10543F1E7A80701D525F00405C4F8E2
:1046A0001CA00027C4F818A02A2E09D0304600F01C
:1046B00018F938B304EB8708303EC8F8186019E0E1
:1046C00059F8041B204604EB87029161E168884792
:1046D000012F064618D1E069002820DA25F02005D0
:1046E0001DE0D8F8180000EB800006EB40003038E1
:1046F000C8F818002046E1688847064600F0F1F83F
:104700000028EED1012F0AD02E2E08D12046E168D4
:1047100088477F1C0646022F45F02005C4DBA069B0
:10472000002803DA404245F00105A061E80701D006
:1047300025F01005A6B1A6F14100192802D82036AF
:1047400045F400654A463146204625604D46FBF754
:1047500045FD60B1012807D0ED1D25F0070000E000
:1047600007E000F1080978E705F1040975E730462C
:104770007AE7206ABDE8F09F140600007047704792
:1047800070472DE9F0470D4699469246044600F1E0
:1047900024080168880604D5E06921F01001216031
:1047A00000E00120A84201DD471B00E00027A169CD
:1047B0007A1902EB0900081AA0612078C00602D419
:1047C0002046FFF7DBFE002608E0D4E901211AF8B5
:1047D00006009047206A401C761C20624E45F4DBA0
:1047E0002078C0060AD52046FFF7C8FE06E0D4E9C7
:1047F000012130209047206A401C2062381EA7F11A
:104800000107F4DC07E0D4E9012118F8050090471E
:10481000206A401C2062281EA5F10105F3DC204619
:10482000FFF7C2FE2078000602D50220BDE8F0871F
:104830000120FBE701694A1C02610878704700B556
:104840008FB0CDE901310021059105497944CDE9C9
:10485000031011466846FFF7F5FE0FB000BD0000DB
:10486000E5FFFFFF0A6802F8010B0A607047754612
:1048700000F02CF8AE4605006946534620F00700CC
:10488000854618B020B5FFF7B5FDBDE820404FF0D4
:1048900000064FF000074FF000084FF0000BAC4649
:1048A000ACE8C009ACE8C009ACE8C009ACE8C00994
:1048B00021F007018D46704710B50446AFF3008024
:1048C0002046BDE81040FBF79BBC00000048704745
:1048D0001800002001491820ABBEFEE726000200A8
:1048E000704730380A2801D20120704700207047F5
:1048F0004FF47F0C1CEAD0121EBF1CEAD11392EABF
:104900000C0F93EA0C0F00F0858090EA010F48BF6E
:1049100042F4807240F4000C41F400002CF07F411E
:1049200020F07F4000B5A2EB030281420FF2081C89
:10493000ACEB504E9EF800E0C0F100004FEA4E0E86
:1049400000FB0EFC38BF49004FEA2C1C0CFB0EF399
:104950004FEACE1E0EEB635E4FEA112C0EFB0CFCF1
:104960004FEAC1214FEA1C5300FB031102F5FA0282
:104970004FEA112C0EFB0CFC4FEA01314FEADC4CE4
:1049800000FB0C1142EB2242C14228BF09184CEB3C
:1049900003335DF804EB10EB410143EBC250B2F579
:1049A0007C0F38BF704729D512F0F00F1CBF00F103
:1049B000C04000F000407047008182838485868774
:1049C00088898B8C8D8E8F919293959697999A9CCE
:1049D0009D9FA0A2A3A5A7A8AAACAEB0B2B3B5B73D
:1049E000B9BCBEC0C2C5C7C9CCCED1D4D7D9DCDF13
:1049F000E2E6E9ECF0F3F7FAFE0000004FEA400CC3
:104A00000CF1807CBCF17E4F28BF7047B0F1C040F4
:104A100000F027B90CEAD11390EA010F48BF42F425
:104A20008072624538BF634507D213F47F0F16D0FA
:104A300080EA010000F00040704710B500F0CBF8AC
:104A4000097EFC3E00F005B880EA010000F000405D
:104A5000704780EA010000F0004000F002B912F453
:104A60007F0F04BF0248704780EA010000F0F9B8E8
:104A70000000C07F41000B0ED3F19E0208D950F414
:104A800000034FEA032323FA02F048BF4042704775
:104A900010B500F0A0F800BF4992248000207047B4
:104AA0006FF0004282EA200070470000B0FA80F305
:104AB00010FA03F2C3F19D030AD0D90501EB1220CD
:104AC000530638BF704700F1010008BF20F0010015
:104AD000704700004FF47F0C1CEAD0121EBF1CEA86
:104AE000D11392EA0C0F93EA0C0F00F0478090EA82
:104AF000010F48BF42F480724FF0004C4CEA002096
:104B00004CEA012102EB0302A0FB0113A2F5000213
:104B1000002918BF43F001035B0028BF4FEA3303AD
:104B200042EB22425FEA132C4CEBC2502EBFBCEB8F
:104B3000436FB2F57C0F70474FEA036CBCF1004F36
:104B400008BF20F00100B2F57C0F38BF70470BD5CD
:104B500082F0FF0212F5803FC8BF704700F1C040ED
:104B6000D8BF00F00040704700F5000C5FEA4C0C25
:104B700048BF7047B0F1C04000F073B80CEAD113E1
:104B800090EA010F48BF42F48072624538BF634526
:104B900004D280EA010000F00040704710B500F038
:104BA0001AF800BF8900013E00F007B800F009B80C
:104BB0005FEA410C5FEA1C6C08D080EA010000F05B
:104BC00050B85FEA400C5FEA1C6CF6D14FF0004031
:104BD000A0F5800070470EF1020E2EF0030E5EF875
:104BE000044B244204D44FEA4102B2F17F4F11D862
:104BF0004FEA4003B3F17F4F0CD80ED14FEAD07C7F
:104C00000CEB4C0C0CF1020CB2F17F4F08BF4CEBDB
:104C1000D17C04E04FF0080C01E04FEAD17C0CEBB2
:104C20004C0324FA03F404F00704B4F1040C06D294
:104C30000EEB840CBDE810404CF0010C6047DFE83F
:104C40000CF0070802024FF00040A0F5800010BDF4
:104C50000846420018BFD2F1807288BF00F00040C1
:104C600010BDFF2141EAD050C00570470400000884
:104C70000000000000000002000100001000000021
:104C8000FFFFFEFF00000200010000009C0000206A
:104C90008600002010010020110A120A130A140ACB
:104CA000110A160A000000000102030400030504B3
:104CB0000102060025303264002530356400000012
:104CC00001010102020202020203030303040404BD
:104CD00005050606070808090A0B0C0D0E0F111230
:104CE0001416181A1C1F2225282C3034393E444A29
:104CF0005159616A747E8A96A4B3C4D6EAFF000053
:104D0000204D00080000002018000000A401000849
:104D1000384D00081800002068090000C001000894
:104D200000A24A04000020423F00FFFFD00780009D
:084D3000FA04960028000000BF
:040000050800016985
:00000001FF
